{
  "_format": "hh-sol-artifact-1",
  "contractName": "CompanyRegistry",
  "sourceName": "contracts/CompanyRegistry.sol",
  "abi": [
    {
      "anonymous": false,
      "inputs": [
        {
          "indexed": true,
          "internalType": "uint256",
          "name": "companyId",
          "type": "uint256"
        },
        {
          "indexed": false,
          "internalType": "string",
          "name": "name",
          "type": "string"
        },
        {
          "indexed": false,
          "internalType": "string",
          "name": "companyType",
          "type": "string"
        },
        {
          "indexed": false,
          "internalType": "string",
          "name": "location",
          "type": "string"
        },
        {
          "indexed": false,
          "internalType": "string",
          "name": "description",
          "type": "string"
        },
        {
          "indexed": true,
          "internalType": "address",
          "name": "owner",
          "type": "address"
        }
      ],
      "name": "CompanyAdded",
      "type": "event"
    },
    {
      "inputs": [
        {
          "internalType": "string",
          "name": "_name",
          "type": "string"
        },
        {
          "internalType": "string",
          "name": "_companyType",
          "type": "string"
        },
        {
          "internalType": "string",
          "name": "_location",
          "type": "string"
        },
        {
          "internalType": "string",
          "name": "_description",
          "type": "string"
        }
      ],
      "name": "addCompany",
      "outputs": [],
      "stateMutability": "nonpayable",
      "type": "function"
    },
    {
      "inputs": [
        {
          "internalType": "uint256",
          "name": "",
          "type": "uint256"
        }
      ],
      "name": "companies",
      "outputs": [
        {
          "internalType": "uint256",
          "name": "id",
          "type": "uint256"
        },
        {
          "internalType": "string",
          "name": "name",
          "type": "string"
        },
        {
          "internalType": "string",
          "name": "companyType",
          "type": "string"
        },
        {
          "internalType": "string",
          "name": "location",
          "type": "string"
        },
        {
          "internalType": "string",
          "name": "description",
          "type": "string"
        },
        {
          "internalType": "address",
          "name": "owner",
          "type": "address"
        }
      ],
      "stateMutability": "view",
      "type": "function"
    },
    {
      "inputs": [],
      "name": "companyCount",
      "outputs": [
        {
          "internalType": "uint256",
          "name": "",
          "type": "uint256"
        }
      ],
      "stateMutability": "view",
      "type": "function"
    },
    {
      "inputs": [
        {
          "internalType": "uint256",
          "name": "_companyId",
          "type": "uint256"
        }
      ],
      "name": "getCompany",
      "outputs": [
        {
          "components": [
            {
              "internalType": "uint256",
              "name": "id",
              "type": "uint256"
            },
            {
              "internalType": "string",
              "name": "name",
              "type": "string"
            },
            {
              "internalType": "string",
              "name": "companyType",
              "type": "string"
            },
            {
              "internalType": "string",
              "name": "location",
              "type": "string"
            },
            {
              "internalType": "string",
              "name": "description",
              "type": "string"
            },
            {
              "internalType": "address",
              "name": "owner",
              "type": "address"
            }
          ],
          "internalType": "struct CompanyRegistry.Company",
          "name": "",
          "type": "tuple"
        }
      ],
      "stateMutability": "view",
      "type": "function"
    },
    {
      "inputs": [
        {
          "internalType": "address",
          "name": "",
          "type": "address"
        }
      ],
      "name": "ownerToCompanyId",
      "outputs": [
        {
          "internalType": "uint256",
          "name": "",
          "type": "uint256"
        }
      ],
      "stateMutability": "view",
      "type": "function"
    }
  ],
  "bytecode": "0x608060405260008055348015601357600080fd5b50611320806100236000396000f3fe608060405234801561001057600080fd5b50600436106100565760003560e01c806284c3c61461005b5780632813d19d1461008b57806357d13917146100c057806370e9bb2e146100f05780638e75dd471461010c575b600080fd5b61007560048036038101906100709190610998565b61012a565b60405161008291906109de565b60405180910390f35b6100a560048036038101906100a09190610a25565b610142565b6040516100b796959493929190610af1565b60405180910390f35b6100da60048036038101906100d59190610a25565b6103be565b6040516100e79190610c74565b60405180910390f35b61010a60048036038101906101059190610dcb565b610693565b005b6101146108d4565b60405161012191906109de565b60405180910390f35b60026020528060005260406000206000915090505481565b600160205280600052604060002060009150905080600001549080600101805461016b90610ed1565b80601f016020809104026020016040519081016040528092919081815260200182805461019790610ed1565b80156101e45780601f106101b9576101008083540402835291602001916101e4565b820191906000526020600020905b8154815290600101906020018083116101c757829003601f168201915b5050505050908060020180546101f990610ed1565b80601f016020809104026020016040519081016040528092919081815260200182805461022590610ed1565b80156102725780601f1061024757610100808354040283529160200191610272565b820191906000526020600020905b81548152906001019060200180831161025557829003601f168201915b50505050509080600301805461028790610ed1565b80601f01602080910402602001604051908101604052809291908181526020018280546102b390610ed1565b80156103005780601f106102d557610100808354040283529160200191610300565b820191906000526020600020905b8154815290600101906020018083116102e357829003601f168201915b50505050509080600401805461031590610ed1565b80601f016020809104026020016040519081016040528092919081815260200182805461034190610ed1565b801561038e5780601f106103635761010080835404028352916020019161038e565b820191906000526020600020905b81548152906001019060200180831161037157829003601f168201915b5050505050908060050160009054906101000a900473ffffffffffffffffffffffffffffffffffffffff16905086565b6103c66108da565b600160008381526020019081526020016000206040518060c0016040529081600082015481526020016001820180546103fe90610ed1565b80601f016020809104026020016040519081016040528092919081815260200182805461042a90610ed1565b80156104775780601f1061044c57610100808354040283529160200191610477565b820191906000526020600020905b81548152906001019060200180831161045a57829003601f168201915b5050505050815260200160028201805461049090610ed1565b80601f01602080910402602001604051908101604052809291908181526020018280546104bc90610ed1565b80156105095780601f106104de57610100808354040283529160200191610509565b820191906000526020600020905b8154815290600101906020018083116104ec57829003601f168201915b5050505050815260200160038201805461052290610ed1565b80601f016020809104026020016040519081016040528092919081815260200182805461054e90610ed1565b801561059b5780601f106105705761010080835404028352916020019161059b565b820191906000526020600020905b81548152906001019060200180831161057e57829003601f168201915b505050505081526020016004820180546105b490610ed1565b80601f01602080910402602001604051908101604052809291908181526020018280546105e090610ed1565b801561062d5780601f106106025761010080835404028352916020019161062d565b820191906000526020600020905b81548152906001019060200180831161061057829003601f168201915b505050505081526020016005820160009054906101000a900473ffffffffffffffffffffffffffffffffffffffff1673ffffffffffffffffffffffffffffffffffffffff1673ffffffffffffffffffffffffffffffffffffffff16815250509050919050565b6000600260003373ffffffffffffffffffffffffffffffffffffffff1673ffffffffffffffffffffffffffffffffffffffff1681526020019081526020016000205414610715576040517f08c379a000000000000000000000000000000000000000000000000000000000815260040161070c90610f74565b60405180910390fd5b60008081548092919061072790610fc3565b91905055506040518060c0016040528060005481526020018581526020018481526020018381526020018281526020013373ffffffffffffffffffffffffffffffffffffffff1681525060016000805481526020019081526020016000206000820151816000015560208201518160010190816107a491906111b7565b5060408201518160020190816107ba91906111b7565b5060608201518160030190816107d091906111b7565b5060808201518160040190816107e691906111b7565b5060a08201518160050160006101000a81548173ffffffffffffffffffffffffffffffffffffffff021916908373ffffffffffffffffffffffffffffffffffffffff160217905550905050600054600260003373ffffffffffffffffffffffffffffffffffffffff1673ffffffffffffffffffffffffffffffffffffffff168152602001908152602001600020819055503373ffffffffffffffffffffffffffffffffffffffff166000547fc48531d5584fcb2c0e4bdb70d2dde6ff7c41fd86d86dc000094fd469340ff97c868686866040516108c69493929190611289565b60405180910390a350505050565b60005481565b6040518060c001604052806000815260200160608152602001606081526020016060815260200160608152602001600073ffffffffffffffffffffffffffffffffffffffff1681525090565b6000604051905090565b600080fd5b600080fd5b600073ffffffffffffffffffffffffffffffffffffffff82169050919050565b60006109658261093a565b9050919050565b6109758161095a565b811461098057600080fd5b50565b6000813590506109928161096c565b92915050565b6000602082840312156109ae576109ad610930565b5b60006109bc84828501610983565b91505092915050565b6000819050919050565b6109d8816109c5565b82525050565b60006020820190506109f360008301846109cf565b92915050565b610a02816109c5565b8114610a0d57600080fd5b50565b600081359050610a1f816109f9565b92915050565b600060208284031215610a3b57610a3a610930565b5b6000610a4984828501610a10565b91505092915050565b600081519050919050565b600082825260208201905092915050565b60005b83811015610a8c578082015181840152602081019050610a71565b60008484015250505050565b6000601f19601f8301169050919050565b6000610ab482610a52565b610abe8185610a5d565b9350610ace818560208601610a6e565b610ad781610a98565b840191505092915050565b610aeb8161095a565b82525050565b600060c082019050610b0660008301896109cf565b8181036020830152610b188188610aa9565b90508181036040830152610b2c8187610aa9565b90508181036060830152610b408186610aa9565b90508181036080830152610b548185610aa9565b9050610b6360a0830184610ae2565b979650505050505050565b610b77816109c5565b82525050565b600082825260208201905092915050565b6000610b9982610a52565b610ba38185610b7d565b9350610bb3818560208601610a6e565b610bbc81610a98565b840191505092915050565b610bd08161095a565b82525050565b600060c083016000830151610bee6000860182610b6e565b5060208301518482036020860152610c068282610b8e565b91505060408301518482036040860152610c208282610b8e565b91505060608301518482036060860152610c3a8282610b8e565b91505060808301518482036080860152610c548282610b8e565b91505060a0830151610c6960a0860182610bc7565b508091505092915050565b60006020820190508181036000830152610c8e8184610bd6565b905092915050565b600080fd5b600080fd5b7f4e487b7100000000000000000000000000000000000000000000000000000000600052604160045260246000fd5b610cd882610a98565b810181811067ffffffffffffffff82111715610cf757610cf6610ca0565b5b80604052505050565b6000610d0a610926565b9050610d168282610ccf565b919050565b600067ffffffffffffffff821115610d3657610d35610ca0565b5b610d3f82610a98565b9050602081019050919050565b82818337600083830152505050565b6000610d6e610d6984610d1b565b610d00565b905082815260208101848484011115610d8a57610d89610c9b565b5b610d95848285610d4c565b509392505050565b600082601f830112610db257610db1610c96565b5b8135610dc2848260208601610d5b565b91505092915050565b60008060008060808587031215610de557610de4610930565b5b600085013567ffffffffffffffff811115610e0357610e02610935565b5b610e0f87828801610d9d565b945050602085013567ffffffffffffffff811115610e3057610e2f610935565b5b610e3c87828801610d9d565b935050604085013567ffffffffffffffff811115610e5d57610e5c610935565b5b610e6987828801610d9d565b925050606085013567ffffffffffffffff811115610e8a57610e89610935565b5b610e9687828801610d9d565b91505092959194509250565b7f4e487b7100000000000000000000000000000000000000000000000000000000600052602260045260246000fd5b60006002820490506001821680610ee957607f821691505b602082108103610efc57610efb610ea2565b5b50919050565b7f436f6d70616e7920616c7265616479207265676973746572656420666f72207460008201527f6869732061646472657373000000000000000000000000000000000000000000602082015250565b6000610f5e602b83610a5d565b9150610f6982610f02565b604082019050919050565b60006020820190508181036000830152610f8d81610f51565b9050919050565b7f4e487b7100000000000000000000000000000000000000000000000000000000600052601160045260246000fd5b6000610fce826109c5565b91507fffffffffffffffffffffffffffffffffffffffffffffffffffffffffffffffff820361100057610fff610f94565b5b600182019050919050565b60008190508160005260206000209050919050565b60006020601f8301049050919050565b600082821b905092915050565b60006008830261106d7fffffffffffffffffffffffffffffffffffffffffffffffffffffffffffffffff82611030565b6110778683611030565b95508019841693508086168417925050509392505050565b6000819050919050565b60006110b46110af6110aa846109c5565b61108f565b6109c5565b9050919050565b6000819050919050565b6110ce83611099565b6110e26110da826110bb565b84845461103d565b825550505050565b600090565b6110f76110ea565b6111028184846110c5565b505050565b5b818110156111265761111b6000826110ef565b600181019050611108565b5050565b601f82111561116b5761113c8161100b565b61114584611020565b81016020851015611154578190505b61116861116085611020565b830182611107565b50505b505050565b600082821c905092915050565b600061118e60001984600802611170565b1980831691505092915050565b60006111a7838361117d565b9150826002028217905092915050565b6111c082610a52565b67ffffffffffffffff8111156111d9576111d8610ca0565b5b6111e38254610ed1565b6111ee82828561112a565b600060209050601f831160018114611221576000841561120f578287015190505b611219858261119b565b865550611281565b601f19841661122f8661100b565b60005b8281101561125757848901518255600182019150602085019450602081019050611232565b868310156112745784890151611270601f89168261117d565b8355505b6001600288020188555050505b505050505050565b600060808201905081810360008301526112a38187610aa9565b905081810360208301526112b78186610aa9565b905081810360408301526112cb8185610aa9565b905081810360608301526112df8184610aa9565b90509594505050505056fea2646970667358221220ea54f9df2be575e15a6876721790d7df14946e9eed537cd2107b8f25afde2d1364736f6c634300081c0033",
  "linkReferences": {},
  "deployedLinkReferences": {}
}